{
  "contractName": "caller",
  "abi": [
    {
      "anonymous": false,
      "inputs": [
        {
          "indexed": true,
          "internalType": "address",
          "name": "_owner",
          "type": "address"
        },
        {
          "indexed": true,
          "internalType": "address",
          "name": "_operator",
          "type": "address"
        },
        {
          "indexed": false,
          "internalType": "bool",
          "name": "_approved",
          "type": "bool"
        }
      ],
      "name": "ApprovalForAll",
      "type": "event"
    },
    {
      "anonymous": false,
      "inputs": [
        {
          "indexed": true,
          "internalType": "address",
          "name": "_operator",
          "type": "address"
        },
        {
          "indexed": true,
          "internalType": "address",
          "name": "_from",
          "type": "address"
        },
        {
          "indexed": true,
          "internalType": "address",
          "name": "_to",
          "type": "address"
        },
        {
          "indexed": false,
          "internalType": "uint256[]",
          "name": "_ids",
          "type": "uint256[]"
        },
        {
          "indexed": false,
          "internalType": "uint256[]",
          "name": "_values",
          "type": "uint256[]"
        }
      ],
      "name": "TransferBatch",
      "type": "event"
    },
    {
      "anonymous": false,
      "inputs": [
        {
          "indexed": true,
          "internalType": "address",
          "name": "_operator",
          "type": "address"
        },
        {
          "indexed": true,
          "internalType": "address",
          "name": "_from",
          "type": "address"
        },
        {
          "indexed": true,
          "internalType": "address",
          "name": "_to",
          "type": "address"
        },
        {
          "indexed": false,
          "internalType": "uint256",
          "name": "_id",
          "type": "uint256"
        },
        {
          "indexed": false,
          "internalType": "uint256",
          "name": "_value",
          "type": "uint256"
        }
      ],
      "name": "TransferSingle",
      "type": "event"
    },
    {
      "anonymous": false,
      "inputs": [
        {
          "indexed": false,
          "internalType": "string",
          "name": "_value",
          "type": "string"
        },
        {
          "indexed": true,
          "internalType": "uint256",
          "name": "_id",
          "type": "uint256"
        }
      ],
      "name": "URI",
      "type": "event"
    },
    {
      "inputs": [
        {
          "internalType": "address",
          "name": "_from",
          "type": "address"
        },
        {
          "internalType": "address",
          "name": "_to",
          "type": "address"
        },
        {
          "internalType": "uint256",
          "name": "_id",
          "type": "uint256"
        },
        {
          "internalType": "uint256",
          "name": "_value",
          "type": "uint256"
        },
        {
          "internalType": "bytes",
          "name": "_data",
          "type": "bytes"
        }
      ],
      "name": "safeTransferFrom",
      "outputs": [],
      "stateMutability": "nonpayable",
      "type": "function"
    },
    {
      "inputs": [
        {
          "internalType": "address",
          "name": "_from",
          "type": "address"
        },
        {
          "internalType": "address",
          "name": "_to",
          "type": "address"
        },
        {
          "internalType": "uint256[]",
          "name": "_ids",
          "type": "uint256[]"
        },
        {
          "internalType": "uint256[]",
          "name": "_values",
          "type": "uint256[]"
        },
        {
          "internalType": "bytes",
          "name": "_data",
          "type": "bytes"
        }
      ],
      "name": "safeBatchTransferFrom",
      "outputs": [],
      "stateMutability": "nonpayable",
      "type": "function"
    },
    {
      "inputs": [
        {
          "internalType": "address",
          "name": "_owner",
          "type": "address"
        },
        {
          "internalType": "uint256",
          "name": "_id",
          "type": "uint256"
        }
      ],
      "name": "balanceOf",
      "outputs": [
        {
          "internalType": "uint256",
          "name": "",
          "type": "uint256"
        }
      ],
      "stateMutability": "view",
      "type": "function"
    },
    {
      "inputs": [
        {
          "internalType": "address[]",
          "name": "_owners",
          "type": "address[]"
        },
        {
          "internalType": "uint256[]",
          "name": "_ids",
          "type": "uint256[]"
        }
      ],
      "name": "balanceOfBatch",
      "outputs": [
        {
          "internalType": "uint256[]",
          "name": "",
          "type": "uint256[]"
        }
      ],
      "stateMutability": "view",
      "type": "function"
    },
    {
      "inputs": [
        {
          "internalType": "address",
          "name": "_operator",
          "type": "address"
        },
        {
          "internalType": "bool",
          "name": "_approved",
          "type": "bool"
        }
      ],
      "name": "setApprovalForAll",
      "outputs": [],
      "stateMutability": "nonpayable",
      "type": "function"
    },
    {
      "inputs": [
        {
          "internalType": "address",
          "name": "_owner",
          "type": "address"
        },
        {
          "internalType": "address",
          "name": "_operator",
          "type": "address"
        }
      ],
      "name": "isApprovedForAll",
      "outputs": [
        {
          "internalType": "bool",
          "name": "",
          "type": "bool"
        }
      ],
      "stateMutability": "view",
      "type": "function"
    }
  ],
  "bytecode": "0x60806040526000805534801561001457600080fd5b5061155c806100246000396000f3fe608060405234801561001057600080fd5b50600436106100615760003560e01c8062fdd58e146100665780632eb2c2d6146100965780634e1273f4146100b2578063a22cb465146100e2578063e985e9c5146100fe578063f242432a1461012e575b600080fd5b610080600480360381019061007b91906110dd565b61014a565b60405161008d91906112c1565b60405180910390f35b6100b060048036038101906100ab9190610f27565b610314565b005b6100cc60048036038101906100c7919061111d565b61031e565b6040516100d99190611264565b60405180910390f35b6100fc60048036038101906100f7919061109d565b610500565b005b61011860048036038101906101139190610ee7565b610713565b6040516101259190611286565b60405180910390f35b61014860048036038101906101439190611003565b610875565b005b60008060009050600160000160008573ffffffffffffffffffffffffffffffffffffffff1673ffffffffffffffffffffffffffffffffffffffff1681526020019081526020016000208054905081101561030c5782600160000160008673ffffffffffffffffffffffffffffffffffffffff1673ffffffffffffffffffffffffffffffffffffffff16815260200190815260200160002082815481106101f3576101f2611470565b5b90600052602060002090600302016001015414156103025760011515600160000160008673ffffffffffffffffffffffffffffffffffffffff1673ffffffffffffffffffffffffffffffffffffffff168152602001908152602001600020828154811061026357610262611470565b5b906000526020600020906003020160000160009054906101000a900460ff161515141561029457600191505061030e565b600160000160008573ffffffffffffffffffffffffffffffffffffffff1673ffffffffffffffffffffffffffffffffffffffff16815260200190815260200160002081815481106102e8576102e7611470565b5b90600052602060002090600302016002015491505061030e565b600091505061030e565b505b92915050565b5050505050505050565b6060806000805b878790508110156104f257600088888381811061034557610344611470565b5b905060200201602081019061035a9190610eba565b905060005b600160000160008373ffffffffffffffffffffffffffffffffffffffff1673ffffffffffffffffffffffffffffffffffffffff168152602001908152602001600020805490508110156104dd57600160000160008373ffffffffffffffffffffffffffffffffffffffff1673ffffffffffffffffffffffffffffffffffffffff1681526020019081526020016000208181548110610400576103ff611470565b5b90600052602060002090600302016001015488888581811061042557610424611470565b5b9050602002013514156104ca57600160000160008373ffffffffffffffffffffffffffffffffffffffff1673ffffffffffffffffffffffffffffffffffffffff168152602001908152602001600020818154811061048657610485611470565b5b9060005260206000209060030201600201548585815181106104ab576104aa611470565b5b60200260200101818152505083806104c2906113f8565b9450506104dd565b80806104d5906113f8565b91505061035f565b505080806104ea906113f8565b915050610325565b508192505050949350505050565b8173ffffffffffffffffffffffffffffffffffffffff163373ffffffffffffffffffffffffffffffffffffffff16141561056f576040517f08c379a0000000000000000000000000000000000000000000000000000000008152600401610566906112a1565b60405180910390fd5b3360036000548154811061058657610585611470565b5b906000526020600020906002020160000160006101000a81548173ffffffffffffffffffffffffffffffffffffffff021916908373ffffffffffffffffffffffffffffffffffffffff160217905550816003600054815481106105ec576105eb611470565b5b906000526020600020906002020160010160006101000a81548173ffffffffffffffffffffffffffffffffffffffff021916908373ffffffffffffffffffffffffffffffffffffffff1602179055508060036000548154811061065257610651611470565b5b906000526020600020906002020160010160146101000a81548160ff02191690831515021790555081600460003373ffffffffffffffffffffffffffffffffffffffff1673ffffffffffffffffffffffffffffffffffffffff16815260200190815260200160002060006101000a81548173ffffffffffffffffffffffffffffffffffffffff021916908373ffffffffffffffffffffffffffffffffffffffff16021790555060008081548092919061070a906113f8565b91905055505050565b600080600090505b600380549050811015610869578373ffffffffffffffffffffffffffffffffffffffff166003828154811061075357610752611470565b5b906000526020600020906002020160000160009054906101000a900473ffffffffffffffffffffffffffffffffffffffff1673ffffffffffffffffffffffffffffffffffffffff161415610856578273ffffffffffffffffffffffffffffffffffffffff16600382815481106107cc576107cb611470565b5b906000526020600020906002020160010160009054906101000a900473ffffffffffffffffffffffffffffffffffffffff1673ffffffffffffffffffffffffffffffffffffffff161415610855576003818154811061082e5761082d611470565b5b906000526020600020906002020160010160149054906101000a900460ff1691505061086f565b5b8080610861906113f8565b91505061071b565b50600090505b92915050565b3373ffffffffffffffffffffffffffffffffffffffff168673ffffffffffffffffffffffffffffffffffffffff1614806109395750600460008773ffffffffffffffffffffffffffffffffffffffff1673ffffffffffffffffffffffffffffffffffffffff16815260200190815260200160002060009054906101000a900473ffffffffffffffffffffffffffffffffffffffff1673ffffffffffffffffffffffffffffffffffffffff168673ffffffffffffffffffffffffffffffffffffffff16145b61094257600080fd5b60005b600160000160008873ffffffffffffffffffffffffffffffffffffffff1673ffffffffffffffffffffffffffffffffffffffff16815260200190815260200160002080549050811015610d705784600160000160008973ffffffffffffffffffffffffffffffffffffffff1673ffffffffffffffffffffffffffffffffffffffff16815260200190815260200160002082815481106109e7576109e6611470565b5b9060005260206000209060030201600101541415610d5d5783600160000160008973ffffffffffffffffffffffffffffffffffffffff1673ffffffffffffffffffffffffffffffffffffffff1681526020019081526020016000208281548110610a5457610a53611470565b5b906000526020600020906003020160020154610a70919061137c565b600160000160008973ffffffffffffffffffffffffffffffffffffffff1673ffffffffffffffffffffffffffffffffffffffff1681526020019081526020016000208281548110610ac457610ac3611470565b5b90600052602060002090600302016002018190555060005b85600160000160008973ffffffffffffffffffffffffffffffffffffffff1673ffffffffffffffffffffffffffffffffffffffff1681526020019081526020016000208281548110610b3157610b30611470565b5b9060005260206000209060030201600101541415610bca5784600160000160008973ffffffffffffffffffffffffffffffffffffffff1673ffffffffffffffffffffffffffffffffffffffff1681526020019081526020016000208281548110610b9e57610b9d611470565b5b90600052602060002090600302016002016000828254610bbe9190611326565b92505081905550610d5b565b600160000160008873ffffffffffffffffffffffffffffffffffffffff1673ffffffffffffffffffffffffffffffffffffffff16815260200190815260200160002080549050811415610d4857600160000160008873ffffffffffffffffffffffffffffffffffffffff1673ffffffffffffffffffffffffffffffffffffffff1681526020019081526020016000206040518060600160405280600160000160008c73ffffffffffffffffffffffffffffffffffffffff1673ffffffffffffffffffffffffffffffffffffffff1681526020019081526020016000208581548110610cb857610cb7611470565b5b906000526020600020906003020160000160009054906101000a900460ff161515815260200188815260200187815250908060018154018082558091505060019003906000526020600020906003020160009091909190915060008201518160000160006101000a81548160ff021916908315150217905550602082015181600101556040820151816002015550505b8080610d53906113f8565b915050610adc565b505b8080610d68906113f8565b915050610945565b50505050505050565b600081359050610d88816114e1565b92915050565b60008083601f840112610da457610da36114a4565b5b8235905067ffffffffffffffff811115610dc157610dc061149f565b5b602083019150836020820283011115610ddd57610ddc6114a9565b5b9250929050565b60008083601f840112610dfa57610df96114a4565b5b8235905067ffffffffffffffff811115610e1757610e1661149f565b5b602083019150836020820283011115610e3357610e326114a9565b5b9250929050565b600081359050610e49816114f8565b92915050565b60008083601f840112610e6557610e646114a4565b5b8235905067ffffffffffffffff811115610e8257610e8161149f565b5b602083019150836001820283011115610e9e57610e9d6114a9565b5b9250929050565b600081359050610eb48161150f565b92915050565b600060208284031215610ed057610ecf6114b3565b5b6000610ede84828501610d79565b91505092915050565b60008060408385031215610efe57610efd6114b3565b5b6000610f0c85828601610d79565b9250506020610f1d85828601610d79565b9150509250929050565b60008060008060008060008060a0898b031215610f4757610f466114b3565b5b6000610f558b828c01610d79565b9850506020610f668b828c01610d79565b975050604089013567ffffffffffffffff811115610f8757610f866114ae565b5b610f938b828c01610de4565b9650965050606089013567ffffffffffffffff811115610fb657610fb56114ae565b5b610fc28b828c01610de4565b9450945050608089013567ffffffffffffffff811115610fe557610fe46114ae565b5b610ff18b828c01610e4f565b92509250509295985092959890939650565b60008060008060008060a087890312156110205761101f6114b3565b5b600061102e89828a01610d79565b965050602061103f89828a01610d79565b955050604061105089828a01610ea5565b945050606061106189828a01610ea5565b935050608087013567ffffffffffffffff811115611082576110816114ae565b5b61108e89828a01610e4f565b92509250509295509295509295565b600080604083850312156110b4576110b36114b3565b5b60006110c285828601610d79565b92505060206110d385828601610e3a565b9150509250929050565b600080604083850312156110f4576110f36114b3565b5b600061110285828601610d79565b925050602061111385828601610ea5565b9150509250929050565b60008060008060408587031215611137576111366114b3565b5b600085013567ffffffffffffffff811115611155576111546114ae565b5b61116187828801610d8e565b9450945050602085013567ffffffffffffffff811115611184576111836114ae565b5b61119087828801610de4565b925092505092959194509250565b60006111aa8383611246565b60208301905092915050565b60006111c1826112ec565b6111cb8185611304565b93506111d6836112dc565b8060005b838110156112075781516111ee888261119e565b97506111f9836112f7565b9250506001810190506111da565b5085935050505092915050565b61121d816113c2565b82525050565b6000611230601983611315565b915061123b826114b8565b602082019050919050565b61124f816113ee565b82525050565b61125e816113ee565b82525050565b6000602082019050818103600083015261127e81846111b6565b905092915050565b600060208201905061129b6000830184611214565b92915050565b600060208201905081810360008301526112ba81611223565b9050919050565b60006020820190506112d66000830184611255565b92915050565b6000819050602082019050919050565b600081519050919050565b6000602082019050919050565b600082825260208201905092915050565b600082825260208201905092915050565b6000611331826113ee565b915061133c836113ee565b9250827fffffffffffffffffffffffffffffffffffffffffffffffffffffffffffffffff0382111561137157611370611441565b5b828201905092915050565b6000611387826113ee565b9150611392836113ee565b9250828210156113a5576113a4611441565b5b828203905092915050565b60006113bb826113ce565b9050919050565b60008115159050919050565b600073ffffffffffffffffffffffffffffffffffffffff82169050919050565b6000819050919050565b6000611403826113ee565b91507fffffffffffffffffffffffffffffffffffffffffffffffffffffffffffffffff82141561143657611435611441565b5b600182019050919050565b7f4e487b7100000000000000000000000000000000000000000000000000000000600052601160045260246000fd5b7f4e487b7100000000000000000000000000000000000000000000000000000000600052603260045260246000fd5b600080fd5b600080fd5b600080fd5b600080fd5b600080fd5b7f4f70657261746f722063616e6e6f742062652063616c6c657200000000000000600082015250565b6114ea816113b0565b81146114f557600080fd5b50565b611501816113c2565b811461150c57600080fd5b50565b611518816113ee565b811461152357600080fd5b5056fea2646970667358221220b7e06c736a67fa2693b6efb3cfc76434665ce491a1d40c60272a29da454d5e6364736f6c63430008060033",
  "immutableReferences": {},
  "source": "pragma solidity 0.8.6;\r\n//\"SPDX-License-Identifier:UNLICENSED\";\r\n\r\n/**\r\n    @title ERC-1155 Multi Token Standard\r\n    @dev See https://eips.ethereum.org/EIPS/eip-1155\r\n    Note: The ERC-165 identifier for this interface is 0xd9b67a26.\r\n */\r\ninterface ERC1155 /* is ERC165 */ {\r\n    /**\r\n        @dev Either `TransferSingle` or `TransferBatch` MUST emit when tokens are transferred, including zero value transfers as well as minting or burning (see \"Safe Transfer Rules\" section of the standard).\r\n        The `_operator` argument MUST be the address of an account/contract that is approved to make the transfer (SHOULD be msg.sender).\r\n        The `_from` argument MUST be the address of the holder whose balance is decreased.\r\n        The `_to` argument MUST be the address of the recipient whose balance is increased.\r\n        The `_id` argument MUST be the token type being transferred.\r\n        The `_value` argument MUST be the number of tokens the holder balance is decreased by and match what the recipient balance is increased by.\r\n        When minting/creating tokens, the `_from` argument MUST be set to `0x0` (i.e. zero address).\r\n        When burning/destroying tokens, the `_to` argument MUST be set to `0x0` (i.e. zero address).        \r\n    */\r\n    event TransferSingle(address indexed _operator, address indexed _from, address indexed _to, uint256 _id, uint256 _value);\r\n\r\n    /**\r\n        @dev Either `TransferSingle` or `TransferBatch` MUST emit when tokens are transferred, including zero value transfers as well as minting or burning (see \"Safe Transfer Rules\" section of the standard).      \r\n        The `_operator` argument MUST be the address of an account/contract that is approved to make the transfer (SHOULD be msg.sender).\r\n        The `_from` argument MUST be the address of the holder whose balance is decreased.\r\n        The `_to` argument MUST be the address of the recipient whose balance is increased.\r\n        The `_ids` argument MUST be the list of tokens being transferred.\r\n        The `_values` argument MUST be the list of number of tokens (matching the list and order of tokens specified in _ids) the holder balance is decreased by and match what the recipient balance is increased by.\r\n        When minting/creating tokens, the `_from` argument MUST be set to `0x0` (i.e. zero address).\r\n        When burning/destroying tokens, the `_to` argument MUST be set to `0x0` (i.e. zero address).                \r\n    */\r\n    event TransferBatch(address indexed _operator, address indexed _from, address indexed _to, uint256[] _ids, uint256[] _values);\r\n\r\n    /**\r\n        @dev MUST emit when approval for a second party/operator address to manage all tokens for an owner address is enabled or disabled (absence of an event assumes disabled).        \r\n    */\r\n    event ApprovalForAll(address indexed _owner, address indexed _operator, bool _approved);\r\n\r\n    /**\r\n        @dev MUST emit when the URI is updated for a token ID.\r\n        URIs are defined in RFC 3986.\r\n        The URI MUST point to a JSON file that conforms to the \"ERC-1155 Metadata URI JSON Schema\".\r\n    */\r\n    event URI(string _value, uint256 indexed _id);\r\n\r\n    /**\r\n        @notice Transfers `_value` amount of an `_id` from the `_from` address to the `_to` address specified (with safety call).\r\n        @dev Caller must be approved to manage the tokens being transferred out of the `_from` account (see \"Approval\" section of the standard).\r\n        MUST revert if `_to` is the zero address.\r\n        MUST revert if balance of holder for token `_id` is lower than the `_value` sent.\r\n        MUST revert on any other error.\r\n        MUST emit the `TransferSingle` event to reflect the balance change (see \"Safe Transfer Rules\" section of the standard).\r\n        After the above conditions are met, this function MUST check if `_to` is a smart contract (e.g. code size > 0). If so, it MUST call `onERC1155Received` on `_to` and act appropriately (see \"Safe Transfer Rules\" section of the standard).        \r\n        @param _from    Source address\r\n        @param _to      Target address\r\n        @param _id      ID of the token type\r\n        @param _value   Transfer amount\r\n        @param _data    Additional data with no specified format, MUST be sent unaltered in call to `onERC1155Received` on `_to`\r\n    */\r\n    function safeTransferFrom(address _from, address _to, uint256 _id, uint256 _value, bytes calldata _data) external;\r\n\r\n    /**\r\n        @notice Transfers `_values` amount(s) of `_ids` from the `_from` address to the `_to` address specified (with safety call).\r\n        @dev Caller must be approved to manage the tokens being transferred out of the `_from` account (see \"Approval\" section of the standard).\r\n        MUST revert if `_to` is the zero address.\r\n        MUST revert if length of `_ids` is not the same as length of `_values`.\r\n        MUST revert if any of the balance(s) of the holder(s) for token(s) in `_ids` is lower than the respective amount(s) in `_values` sent to the recipient.\r\n        MUST revert on any other error.        \r\n        MUST emit `TransferSingle` or `TransferBatch` event(s) such that all the balance changes are reflected (see \"Safe Transfer Rules\" section of the standard).\r\n        Balance changes and events MUST follow the ordering of the arrays (_ids[0]/_values[0] before _ids[1]/_values[1], etc).\r\n        After the above conditions for the transfer(s) in the batch are met, this function MUST check if `_to` is a smart contract (e.g. code size > 0). If so, it MUST call the relevant `ERC1155TokenReceiver` hook(s) on `_to` and act appropriately (see \"Safe Transfer Rules\" section of the standard).                      \r\n        @param _from    Source address\r\n        @param _to      Target address\r\n        @param _ids     IDs of each token type (order and length must match _values array)\r\n        @param _values  Transfer amounts per token type (order and length must match _ids array)\r\n        @param _data    Additional data with no specified format, MUST be sent unaltered in call to the `ERC1155TokenReceiver` hook(s) on `_to`\r\n    */\r\n    function safeBatchTransferFrom(address _from, address _to, uint256[] calldata _ids, uint256[] calldata _values, bytes calldata _data) external;\r\n\r\n    /**\r\n        @notice Get the balance of an account's tokens.\r\n        @param _owner  The address of the token holder\r\n        @param _id     ID of the token\r\n        @return        The _owner's balance of the token type requested\r\n     */\r\n    function balanceOf(address _owner, uint256 _id) external view returns (uint256);\r\n\r\n    /**\r\n        @notice Get the balance of multiple account/token pairs\r\n        @param _owners The addresses of the token holders\r\n        @param _ids    ID of the tokens\r\n        @return        The _owner's balance of the token types requested (i.e. balance for each (owner, id) pair)\r\n     */\r\n    function balanceOfBatch(address[] calldata _owners, uint256[] calldata _ids) external view returns (uint256[] memory);\r\n\r\n    /**\r\n        @notice Enable or disable approval for a third party (\"operator\") to manage all of the caller's tokens.\r\n        @dev MUST emit the ApprovalForAll event on success.\r\n        @param _operator  Address to add to the set of authorized operators\r\n        @param _approved  True if the operator is approved, false to revoke approval\r\n    */\r\n    function setApprovalForAll(address _operator, bool _approved) external;\r\n\r\n    /**\r\n        @notice Queries the approval status of an operator for a given owner.\r\n        @param _owner     The owner of the tokens\r\n        @param _operator  Address of authorized operator\r\n        @return           True if the operator is approved, false if not\r\n    */\r\n    function isApprovedForAll(address _owner, address _operator) external view returns (bool);\r\n}\r\n\r\n/**\r\n    Note: The ERC-165 identifier for this interface is 0x4e2312e0.\r\n*/\r\ninterface ERC1155TokenReceiver {\r\n    /**\r\n        @notice Handle the receipt of a single ERC1155 token type.\r\n        @dev An ERC1155-compliant smart contract MUST call this function on the token recipient contract, at the end of a `safeTransferFrom` after the balance has been updated.        \r\n        This function MUST return `bytes4(keccak256(\"onERC1155Received(address,address,uint256,uint256,bytes)\"))` (i.e. 0xf23a6e61) if it accepts the transfer.\r\n        This function MUST revert if it rejects the transfer.\r\n        Return of any other value than the prescribed keccak256 generated value MUST result in the transaction being reverted by the caller.\r\n        @param _operator  The address which initiated the transfer (i.e. msg.sender)\r\n        @param _from      The address which previously owned the token\r\n        @param _id        The ID of the token being transferred\r\n        @param _value     The amount of tokens being transferred\r\n        @param _data      Additional data with no specified format\r\n        @return           `bytes4(keccak256(\"onERC1155Received(address,address,uint256,uint256,bytes)\"))`\r\n    */\r\n    function onERC1155Received(address _operator, address _from, uint256 _id, uint256 _value, bytes calldata _data) external returns(bytes4);\r\n\r\n    /**\r\n        @notice Handle the receipt of multiple ERC1155 token types.\r\n        @dev An ERC1155-compliant smart contract MUST call this function on the token recipient contract, at the end of a `safeBatchTransferFrom` after the balances have been updated.        \r\n        This function MUST return `bytes4(keccak256(\"onERC1155BatchReceived(address,address,uint256[],uint256[],bytes)\"))` (i.e. 0xbc197c81) if it accepts the transfer(s).\r\n        This function MUST revert if it rejects the transfer(s).\r\n        Return of any other value than the prescribed keccak256 generated value MUST result in the transaction being reverted by the caller.\r\n        @param _operator  The address which initiated the batch transfer (i.e. msg.sender)\r\n        @param _from      The address which previously owned the token\r\n        @param _ids       An array containing ids of each token being transferred (order and length must match _values array)\r\n        @param _values    An array containing amounts of each token being transferred (order and length must match _ids array)\r\n        @param _data      Additional data with no specified format\r\n        @return           `bytes4(keccak256(\"onERC1155BatchReceived(address,address,uint256[],uint256[],bytes)\"))`\r\n    */\r\n    function onERC1155BatchReceived(address _operator, address _from, uint256[] calldata _ids, uint256[] calldata _values, bytes calldata _data) external returns(bytes4);       \r\n}\r\n\r\ncontract caller is ERC1155 {\r\n    \r\n    struct tokenInfo {\r\n        bool isNFT; \r\n        uint id;\r\n        uint quantity;\r\n    }\r\n    \r\n    struct holder {\r\n        mapping (address => tokenInfo[]) typesHeld;\r\n        mapping (uint => address) nftHolder;\r\n    }\r\n    \r\n    struct approvedOperators {\r\n        address owned;\r\n        address op;\r\n        bool status;\r\n    }\r\n    \r\n    uint counter = 0;\r\n    holder wallet;\r\n    approvedOperators[] secondary;\r\n    mapping (address => address) ownerToOp;\r\n    \r\n    function safeTransferFrom(address _from, address _to, uint256 _id, uint256 _value, bytes calldata _data) override external {\r\n        require(_from == msg.sender || _from == ownerToOp[_from]);\r\n        for (uint i = 0; i < wallet.typesHeld[_from].length; i++) {\r\n            if (wallet.typesHeld[_from][i].id == _id) {\r\n                wallet.typesHeld[_from][i].quantity =  wallet.typesHeld[_from][i].quantity - _value;\r\n                for (uint j = 0;; j++) {\r\n                    if (wallet.typesHeld[_to][j].id == _id) {\r\n                        wallet.typesHeld[_to][j].quantity += _value;\r\n                        break;\r\n                    }\r\n                    if (j == wallet.typesHeld[_to].length) {\r\n                        wallet.typesHeld[_to].push(tokenInfo(wallet.typesHeld[_from][i].isNFT, _id, _value));\r\n                    }\r\n                }\r\n            }\r\n        }\r\n    }\r\n    \r\n    function safeBatchTransferFrom(address _from, address _to, uint256[] calldata _ids, uint256[] calldata _values, bytes calldata _data) override external {\r\n        \r\n    }\r\n    \r\n    function balanceOf(address _owner, uint256 _id) override external view returns (uint256) {\r\n        for (uint i = 0; i < wallet.typesHeld[_owner].length; i++) {\r\n            if (wallet.typesHeld[_owner][i].id == _id) {\r\n                if (wallet.typesHeld[_owner][i].isNFT == true) {\r\n                    return 1;\r\n                } else {\r\n                    return wallet.typesHeld[_owner][i].quantity;\r\n                }\r\n            }\r\n        return 0;\r\n        }\r\n    }\r\n    \r\n    function balanceOfBatch(address[] calldata _owners, uint256[] calldata _ids) override external view returns (uint256[] memory) {\r\n        uint[] memory quantityHold;\r\n        uint quantityArrLen = 0;\r\n        for (uint i = 0; i < _owners.length; i++) {\r\n            address currentPerson = _owners[i];\r\n            for (uint j = 0; j < wallet.typesHeld[currentPerson].length; j++) {\r\n                if (_ids[i] == wallet.typesHeld[currentPerson][j].id) {\r\n                    quantityHold[quantityArrLen] = wallet.typesHeld[currentPerson][j].quantity;\r\n                    quantityArrLen++;\r\n                    break;\r\n                }\r\n            }\r\n        }\r\n        return quantityHold;\r\n    }\r\n    \r\n    function setApprovalForAll(address _operator, bool _approved) override external {\r\n        require (msg.sender != _operator, \"Operator cannot be caller\");\r\n        secondary[counter].owned = msg.sender;\r\n        secondary[counter].op = _operator;\r\n        secondary[counter].status = _approved;\r\n        ownerToOp[msg.sender] = _operator;\r\n        counter++;\r\n    }\r\n    \r\n    function isApprovedForAll(address _owner, address _operator) override external view returns (bool) {\r\n        for (uint i = 0; i < secondary.length; i++) {\r\n            if (secondary[i].owned == _owner) {\r\n                if (secondary[i].op == _operator) {\r\n                    return secondary[i].status;\r\n                    //return flag;\r\n                }\r\n            }\r\n        }\r\n        return false;\r\n    }\r\n\r\n}",
  "sourcePath": "C:/Users/Mariam Javed/XORD_Training/contracts/ERC1155.sol",
  "compiler": {
    "name": "solc",
    "version": "0.8.6+commit.11564f7e.Emscripten.clang"
  },
  "schemaVersion": "3.4.1",
  "updatedAt": "2021-07-01T10:59:41.375Z",
  "devdoc": {
    "kind": "dev",
    "methods": {
      "balanceOf(address,uint256)": {
        "params": {
          "_id": "ID of the token",
          "_owner": "The address of the token holder"
        },
        "returns": {
          "_0": "The _owner's balance of the token type requested"
        }
      },
      "balanceOfBatch(address[],uint256[])": {
        "params": {
          "_ids": "ID of the tokens",
          "_owners": "The addresses of the token holders"
        },
        "returns": {
          "_0": "The _owner's balance of the token types requested (i.e. balance for each (owner, id) pair)"
        }
      },
      "isApprovedForAll(address,address)": {
        "params": {
          "_operator": "Address of authorized operator",
          "_owner": "The owner of the tokens"
        },
        "returns": {
          "_0": "True if the operator is approved, false if not"
        }
      },
      "safeBatchTransferFrom(address,address,uint256[],uint256[],bytes)": {
        "details": "Caller must be approved to manage the tokens being transferred out of the `_from` account (see \"Approval\" section of the standard). MUST revert if `_to` is the zero address. MUST revert if length of `_ids` is not the same as length of `_values`. MUST revert if any of the balance(s) of the holder(s) for token(s) in `_ids` is lower than the respective amount(s) in `_values` sent to the recipient. MUST revert on any other error.         MUST emit `TransferSingle` or `TransferBatch` event(s) such that all the balance changes are reflected (see \"Safe Transfer Rules\" section of the standard). Balance changes and events MUST follow the ordering of the arrays (_ids[0]/_values[0] before _ids[1]/_values[1], etc). After the above conditions for the transfer(s) in the batch are met, this function MUST check if `_to` is a smart contract (e.g. code size > 0). If so, it MUST call the relevant `ERC1155TokenReceiver` hook(s) on `_to` and act appropriately (see \"Safe Transfer Rules\" section of the standard).                      ",
        "params": {
          "_data": "Additional data with no specified format, MUST be sent unaltered in call to the `ERC1155TokenReceiver` hook(s) on `_to`",
          "_from": "Source address",
          "_ids": "IDs of each token type (order and length must match _values array)",
          "_to": "Target address",
          "_values": "Transfer amounts per token type (order and length must match _ids array)"
        }
      },
      "safeTransferFrom(address,address,uint256,uint256,bytes)": {
        "details": "Caller must be approved to manage the tokens being transferred out of the `_from` account (see \"Approval\" section of the standard). MUST revert if `_to` is the zero address. MUST revert if balance of holder for token `_id` is lower than the `_value` sent. MUST revert on any other error. MUST emit the `TransferSingle` event to reflect the balance change (see \"Safe Transfer Rules\" section of the standard). After the above conditions are met, this function MUST check if `_to` is a smart contract (e.g. code size > 0). If so, it MUST call `onERC1155Received` on `_to` and act appropriately (see \"Safe Transfer Rules\" section of the standard).        ",
        "params": {
          "_data": "Additional data with no specified format, MUST be sent unaltered in call to `onERC1155Received` on `_to`",
          "_from": "Source address",
          "_id": "ID of the token type",
          "_to": "Target address",
          "_value": "Transfer amount"
        }
      },
      "setApprovalForAll(address,bool)": {
        "details": "MUST emit the ApprovalForAll event on success.",
        "params": {
          "_approved": "True if the operator is approved, false to revoke approval",
          "_operator": "Address to add to the set of authorized operators"
        }
      }
    },
    "version": 1
  },
  "userdoc": {
    "kind": "user",
    "methods": {
      "balanceOf(address,uint256)": {
        "notice": "Get the balance of an account's tokens."
      },
      "balanceOfBatch(address[],uint256[])": {
        "notice": "Get the balance of multiple account/token pairs"
      },
      "isApprovedForAll(address,address)": {
        "notice": "Queries the approval status of an operator for a given owner."
      },
      "safeBatchTransferFrom(address,address,uint256[],uint256[],bytes)": {
        "notice": "Transfers `_values` amount(s) of `_ids` from the `_from` address to the `_to` address specified (with safety call)."
      },
      "safeTransferFrom(address,address,uint256,uint256,bytes)": {
        "notice": "Transfers `_value` amount of an `_id` from the `_from` address to the `_to` address specified (with safety call)."
      },
      "setApprovalForAll(address,bool)": {
        "notice": "Enable or disable approval for a third party (\"operator\") to manage all of the caller's tokens."
      }
    },
    "version": 1
  }
}